:030000000205A551
:0C05A50078FFE4F6D8FD7581420205ECF9
:1006F300EF4480F5ADEFC3940874809480500FA845
:10070300077401088002C333D8FCF5AB8010EF24D3
:10071300F8FFF87401088002C333D8FCF5AC43A892
:0407230040D2AF22EF
:0300330002095E61
:06095E0053ADEFD215328B
:10063100E4F50CF50DFD1206F37F0A120814E4FD32
:10064100EDC3940A74809480502B43AD403015FD66
:10065100C215AFAFEF75F010A4FFE5AEC4540F7A29
:10066100002FFFEA35F0FEED25E02423F8A6060869
:10067100A6070D80CBE4FDEDC394087480948050EF
:1006810016ED25E02427F8E6FE08E6250DF50DEE2A
:10069100350CF50C0D80E0AE0CE50D7803CEC313DF
:0906A100CE13D8F9F50D8E0CFF03
:0106AA00222D
:04094300023F00006F
:1007F600C2AF8DF5E4F5F38FF28BF475F1F075F673
:0E080600060000000000000000F5F4D2AF2252
:10084C00C2AF8DF4E5402FF582E4353FF583E49398
:08085C00FEE4F5F4D2AFAF0693
:010864002271
:100894004261747465727956616C74616765203D58
:0608A400202564200A007B
:1006AB0012078612094C1207D41209737F0812061F
:1006BB00318E098F0A1209647BFF7A0879948509B8
:1006CB000E850A0F1200B07FC8120814E4F508C398
:1006DB00E50894327480948050097FC81208140581
:0706EB000880ECC282D2AFCF
:0106F20022E5
:09094C00751F01E4F538F53922AC
:10078600759AFFE4F59B7591FFF59275A1FFF5A2A9
:10079600439AF043913043A1CCC283C281D282D224
:0807A600805391FE43920122F1
:100832001209701208AA12000E7F641208143014F2
:0A084200031207D412047402072702
:1008AA0053D27F53AD7F120907C28CC21412003291
:0308BA00020955DB
:10000E0075870200000000000000000000000000E4
:05001E0000E4F5CE2214
:10047400C200C213759AFFE4FF1206318E088F0979
:10048400C3E50994E8E50894035003020516C28005
:100494007F0A120814E4FF120631D280D3E5099FC3
:1004A400E5089E4068E5099FFFE5089EFED3E5093F
:1004B40094D8E508940E400BD3EF94D0EE94074003
:1004C40002D200D3E5099410E508940E400BD3EF53
:1004D4009408EE94074002D200D3E50994E4E508B9
:1004E400940C400BD3EF94DCEE94054002D200D37D
:1004F400E50994F0E508940A400BD3EF94CEEE940A
:10050400044002D200300005D280D21322120970B6
:02051400D28093
:0105160022C2
:1008E300D283C281E4F538F539F53AF53BD20CC22F
:0208F3000D22D4
:1008F500C283D281E4F53CF53DC20CD20DC20AF5A6
:0209050041228D
:0A093900C20AE4F541C283C2812224
:03096D00D2822211
:03097000C282221E
:0909550075CE8443A904D2AF223F
:03004B000200268A
:0C002600C0E0E5CE20E602D214D0E032AB
:10081400EFD39400748094804013E4FEEEC3941EDE
:0D082400748094805004000E80F21F80E369
:0108310022A4
:1008BD00120969300B0C120970751F01C20BC28C25
:0308CD00C2A9229B
:10003600D2801208E312096D751F03C20BE4F5386E
:05004600F5390208D0AD
:100727007FE87E03301329E4F5CE1209187F0812FB
:1007370006318E088F097F081206318E0A8F0BC388
:10074700E509946AE508940950030209291200365D
:01075700227F
:10092900751F04D212E4F537F53E12096D0208D09D
:10087D00120969201210120970751F011207D41286
:07088D000964C28CC2A9221C
:10090700A2AF9200C2AF75FEC153FF7FA20092AFA4
:0109170022BD
:10091800A2AF9200C2AF75FEC143FF80A20092AFA2
:0109280022AC
:0409690043CF102246
:0100320022AB
:1008D000758E07438901758A80758C44C28CD2A9B4
:0308E000D28C2295
:03000B000203AA43
:1003AA00C0E0C0F0C083C082C0D075D000C000C019
:1003BA0001C002C003C004C005C006C007758A8018
:1003CA00758C44E51F64037062300C1B0539E539EE
:1003DA0070020538D39474E5389401400A12093939
:1003EA00C20CD20A754100300A120541C3E5419494
:1003FA0049748094804005C20A1208F5300D16052A
:10040A003DE53D7002053CD3941CE53C9400400553
:10041A00C20D120939053BE53B7002053AD3942017
:10042A00E53A94034005D20B120939301221053EF0
:10043A00D3E53E944B748094804014753E00053792
:10044A00B282D3E5379404748094804002C212D0F9
:10045A0007D006D005D004D003D002D001D000D0F6
:0A046A00D0D082D083D0F0D0E03271
:04094700C10EC1100C
:1007D4005391F343920C759850438780E4F5C875A0
:1007E4008920758E02758BD9758DD9D28ED2ACD2F3
:0207F400AF2232
:05096400D211D299221E
:03097300C211228C
:08000300300FFDC20F8F99229E
:030023000208656B
:1008650030990D201106C299D20E8004C299D20F7B
:08087500309804C298D2103241
:1007AE00426567696E20746F20776F726B2C4D43B4
:1007BE005520676F20696E746F206D61696E206CB5
:0607CE006F6F70210A00AC
:100758001206AB1209647BFF7A0779AE1200B01259
:100768000969E51F24FD600C14600E240370F01263
:0E077800083280EB1208BD80E612087D80E199
:1005B100020758E493A3F8E493A34003F68001F201
:1005C10008DFF48029E493A3F85407240CC8C3334B
:1005D100C4540F4420C8834004F456800146F6DF1A
:1005E100E4800B0102040810204080900943E47E5E
:1005F100019360BCA3FF543F30E509541FFEE4930F
:10060100A360010ECF54C025E060A840B8E493A3D5
:10061100FAE493A3F8E493A3C8C582C8CAC583CA00
:10062100F0A3C8C582C8CAC583CADFE9DEE780BEB8
:01094B0000AB
:10004E00E51A240EF8E6051A22780B300702780E10
:10005E00E475F00112056F0205172000EB7F2ED21A
:10006E00008018EF540F2490D43440D4FF30040B8A
:10007E00EF24BFB41A0050032461FFE51B60021584
:10008E001B051EE51E7002051D30070D780BE4756D
:10009E00F00112056FEF02055D0200037403D20733
:1000AE008003E4C207F51A8B0B8A0C890DE4F51B4D
:1000BE00F51DF51EE51B60077F2012008980F57582
:1000CE001CFFC201C200C202C203C205C206C208A0
:1000DE00120057FF700D3007057F0012009AAF1EF9
:1000EE00AE1D22B4255FC2D5C204120057FF24D024
:1000FE00B40A00501A75F00A781B30D50508B6FF01
:10010E000106C6A426F620D5047002D20380D92497
:10011E00CFB41A00EF5004C2E5D20402029AD20103
:10012E0080C6D20080C0D20280BCD2D580BAD205A1
:10013E0080B47F201200892002077401B51B004095
:10014E00F112004EFF1200890200C2D208D20680C0
:10015E009512004EFB12004EFA12004EF94A4B70E9
:10016E0006796B7A037BFF20022EE51B602A7E0048
:10017E008E8275830012053060060EEE651C70F0DF
:10018E00C2D5EBC0E0EAC0E0E9C0E0EE1202E1D079
:10019E00E0F9D0E0FAD0E0FB120517FF60AAEBC041
:1001AE00E0EAC0E0E9C0E0120089D0E02401F9D015
:1001BE00E03400FAD0E0FBE51C0460DCD51CD980ED
:1001CE00877BFF7A0279DDD202809C7910800279DA
:1001DE0008C206C2088008D2D5790A8004790AC2FC
:1001EE00D5E51C047002F51CE4FAFDFEFF12004E6C
:1001FE00FC7B0820011312004EFD7B1030000A120A
:10020E00004EFE12004EFF7B20EC3382D592D5506D
:10021E0013C3E43000069FFFE49EFEE42001039D1D
:10022E00FDE49CFCE4CBF8C201EC700CCFCECDCC3F
:10023E00E824F8F870F38017C3EF33FFEE33FEEDCA
:10024E0033FDEC33FCEB33FB994002FB0FD8E9EBAB
:10025E00300105F8D0E0C448B201C0E00AEC4D4EC2
:10026E004F78207B0070C2EAB51C0040BCC0E01283
:10027E0002E3D0F0D0E0200104C4C0E0C4B201C05B
:10028E00F0120072D0F0D5F0EB0200C212057F0121
:10029E005F5301D95801304C012C4201DD4F01E56D
:0F02AE004401E54901454301EB5501CF4601CF1E
:1002BD004501CF47038B5001342D01382E015B2BA7
:1002CD00013C2301592003742A00F4480000015316
:1002DD003F3F3F00790AA2D5200314300509B9101C
:1002ED00020404B9080104A2D5200602500104201D
:1002FD0002689202B51B005034C0E07F2030031914
:10030D007F30A20272067205500F12033AC202C26A
:10031D0006C205C2087F30800F300503E9C0E01228
:10032D000089300503D0E0F9D0E0B51BCC300517BE
:10033D007F30B9100C1200897F583004077F788008
:10034D0003B908031200893002057F2D0200897F51
:10035D00202008F87F2B2006F322920280CF286EF2
:10036D00756C6C2900D20112004E3001F8C2017873
:10037D001B30D50108F60200F42D504349581200E8
:10038D004E2403B405004001E49003869312007AD5
:0D039D00743A12007AD203751B040201D9D4
:10051700BB010689828A83E0225002E722BBFE02E2
:09052700E32289828A83E4932215
:10053000BB010CE58229F582E5833AF583E0225080
:1005400006E92582F8E622BBFE06E92582F8E222CA
:0D055000E58229F582E5833AF583E49322E4
:10055D00BB010689828A83F0225002F722BBFE017D
:02056D00F32277
:10056F00FAE6FB0808E6F925F0F618E6CA3AF6228D
:10057F00D083D082F8E4937012740193700DA3A30B
:10058F0093F8740193F5828883E47374029368601F
:06059F00EFA3A3A380DF1F
:00000001FF
